:020000040800F2
:10000000000002207D350008513600085D360008EA
:1000100069360008753600088136000800000000C7
:100020000000000000000000000000008D36000805
:100030008F36000800000000913600089D36000849
:1000400045360008453600084536000845360008A4
:100050004536000845360008453600084536000894
:100060004536000845360008453600084536000884
:100070004536000845360008453600084536000874
:100080004536000845360008453600084536000864
:100090004536000845360008453600080B3700088D
:1000A0004536000845360008453600084536000844
:1000B0004536000845360008453600084536000834
:1000C0004536000845360008453600084536000824
:1000D00045360008ED36000845360008453600086C
:1000E0004536000845360008453600084536000804
:1000F00045360008453600084536000845360008F4
:1001000045360008453600084536000845360008E3
:1001100045360008453600084536000845360008D3
:1001200045360008453600084536000845360008C3
:1001300045360008453600084536000845360008B3
:1001400045360008453600084536000845360008A3
:100150004536000845360008453600084536000893
:100160004536000845360008453600084536000883
:100170004536000845360008453600084536000873
:100180004536000845360008453600084536000863
:08019000453600084536000861
:1001C000844641EA000313F003036DD1403A41D362
:1001D00051F8043B40F8043B51F8043B40F8043B21
:1001E00051F8043B40F8043B51F8043B40F8043B11
:1001F00051F8043B40F8043B51F8043B40F8043B01
:1002000051F8043B40F8043B51F8043B40F8043BF0
:1002100051F8043B40F8043B51F8043B40F8043BE0
:1002200051F8043B40F8043B51F8043B40F8043BD0
:1002300051F8043B40F8043B51F8043B40F8043BC0
:1002400051F8043B40F8043B51F8043B40F8043BB0
:10025000403ABDD2303211D351F8043B40F8043B50
:1002600051F8043B40F8043B51F8043B40F8043B90
:1002700051F8043B40F8043B103AEDD20C3205D360
:1002800051F8043B40F8043B043AF9D2043208D058
:10029000D2071CBF11F8013B00F8013B01D30B88CA
:1002A00003806046704700BF082A13D38B078DD0A8
:1002B00010F003038AD0C3F10403D21ADB071CBF7A
:1002C00011F8013B00F8013B80D331F8023B20F8E4
:1002D000023B7BE7043AD9D3013A11F8013B00F81D
:1002E000013BF9D20B7803704B7843708B788370A5
:1002F00060467047000000000000000000000000A1
:10030000A2EB0300704700BF02780B78012A28BFD8
:100310009A42F5D16DE9044540EA0104CDE902674E
:100320006FF0000C4FEA447212B380EA010414F03B
:10033000070F6AD100F0070420F0070004F003055E
:1003400021F007014FEAC505F0E8042314F0040F7B
:10035000F1E804670CFA05F462EA040266EA0406AE
:100360000AD063EA0403624667EA0407664603E0CC
:10037000F0E80423F1E8046782FA4CF582EA060407
:10038000A4FA8CF46CBB83FA4CF583EA0705A5FA52
:100390008CF595B950E9022351E9026782FA4CF5D0
:1003A00082EA0604A4FA8CF483FA4CF583EA070582
:1003B000A5FA8CF52543DBD09CB92DBAB5FA85F4A6
:1003C00024F0070427FA04F1DDE9026723FA04F3B5
:1003D00003F0FF0001F0FF01FDE80445A0EB010080
:1003E000704724BAB4FA84F424F0070426FA04F11E
:1003F000DDE9026722FA04F202F0FF0001F0FF01DA
:10040000FDE80445A0EB0100704714F0030F3CD158
:1004100010F0030428D150F8082B51F8083B82FA59
:100420004CF582EA0305A5FA8CF55DB950F8042C69
:1004300051F8043C82FA4CF582EA0305A5FA8CF5E2
:10044000002DE8D02DBAB5FA85F424F0070423FA7C
:1004500004F122FA04F202F0FF0001F0FF01FDE8CE
:100460000445A0EB010070474FEAC40420F00300EC
:1004700050F8082B21F0030151F8083B0CFA04F462
:1004800062EA040263EA0403C9E710F003041AD025
:10049000A1EB040120F00300E40750F8042B06D080
:1004A0000FD28B785FFAA2F4E41A06D12BB1CB7885
:1004B0005FFAB2F4E41A00D11BB920465DF8104B84
:1004C000704701F1040150F8042BCC0721F003011F
:1004D00051F8043B48D824D222F07F4482FA4CF5EC
:1004E00094EA1325A5FA8CF50AD165B951F8043BB5
:1004F00084EA0204B4EB036F0ED150F8042BEBE74F
:100500004FEA132355E035F07F454DD10878FDE8DB
:100510000445C0F1000070474FEA126203F0FF0388
:1005200047E002EA1C4482FA4CF594EA1345A5FA26
:100530008CF50AD165B951F8043B84EA0204B4EBA6
:10054000034F0CD150F8042BEBE74FEA134330E094
:1005500015EA1C4528D10B884FEA124229E04FEAE0
:10056000124203EA1C4324E002F0FF0482FA4CF535
:1005700094EA1365A5FA8CF50AD165B951F8043BE4
:1005800084EA0204B4EB032F09D150F8042BEBE703
:100590004FEA13630DE015F0FF0F05D10B684FEA2A
:1005A000122223F07F4304E04FF00000FDE80445F1
:1005B000704712BA1BBA82FA4CF482EA0304A4FA16
:1005C0008CF5B5FA85F402FA04F203FA04F34FEA63
:1005D0001260FDE80445A0EB1360704700000000C6
:1005E000000000000000000000000000000000000B
:1005F00000000000000000000000000000000000FB
:1006000090F800F06DE9024520F007016FF0000C52
:1006100010F0070491F820F040F049804FF00004FA
:100620006FF00700D1E9002391F840F000F10800D5
:1006300082FA4CF2A4FA8CF283FA4CF3A2FA8CF30D
:100640004BBBD1E9022382FA4CF200F10800A4FA74
:100650008CF283FA4CF3A2FA8CF3E3B9D1E90423C8
:1006600082FA4CF200F10800A4FA8CF283FA4CF3FF
:10067000A2FA8CF37BB9D1E9062301F1200182FAB9
:100680004CF200F10800A4FA8CF283FA4CF3A2FABF
:100690008CF3002BC6D0002A04BF04301A4612BACD
:1006A000B2FA82F2FDE8024500EBD2007047D1E9D0
:1006B000002304F00305C4F100004FEAC50514F05F
:1006C000040F91F840F00CFA05F562EA05021CBF30
:1006D00063EA050362464FF00004A9E781F0004198
:1006E00002E000BF83F0004330B54FEA41044FEA17
:1006F000430594EA050F08BF90EA020F1FBF54EAB2
:10070000000C55EA020C7FEA645C7FEA655C00F04D
:10071000E2804FEA5454D4EB5555B8BF6D420CDD1E
:100720002C4480EA020281EA030382EA000083EAA1
:10073000010180EA020281EA0303362D88BF30BD41
:1007400011F0004F4FEA01314FF4801C4CEA113197
:1007500002D0404261EB410113F0004F4FEA0333F6
:100760004CEA133302D0524263EB430394EA050F81
:1007700000F0A780A4F10104D5F1200E0DDB02FAF0
:100780000EFC22FA05F2801841F1000103FA0EF284
:10079000801843FA05F359410EE0A5F120050EF14A
:1007A000200E012A03FA0EFC28BF4CF0020C43FA7B
:1007B00005F3C01851EBE37101F0004507D54FF088
:1007C000000EDCF1000C7EEB00006EEB0101B1F5D8
:1007D000801F1BD3B1F5001F0CD349085FEA30001E
:1007E0004FEA3C0C04F101044FEA445212F5800F29
:1007F00080F09A80BCF1004F08BF5FEA500C50F1C6
:10080000000041EB045141EA050130BD5FEA4C0CA8
:10081000404141EB0101013C28BFB1F5801FE9D205
:1008200091F0000F04BF01460020B1FA81F308BF28
:100830002033A3F10B03B3F120020CDA0C3208DDF4
:1008400002F1140CC2F10C0201FA0CF021FA02F1CF
:100850000CE002F11402D8BFC2F1200C01FA02F13F
:1008600020FA0CFCDCBF41EA0C019040E41AA2BF64
:1008700001EB0451294330BD6FEA04041F3C1CDA2C
:100880000C340EDC04F11404C4F1200220FA04F04C
:1008900001FA02F340EA030021FA04F345EA0301F6
:1008A00030BDC4F10C04C4F1200220FA02F001FAB8
:1008B00004F340EA0300294630BD21FA04F029463A
:1008C00030BD94F0000F83F4801306BF81F48011D3
:1008D0000134013D4EE77FEA645C18BF7FEA655C46
:1008E00029D094EA050F08BF90EA020F05D054EA18
:1008F000000C04BF1946104630BD91EA030F1EBF1D
:100900000021002030BD5FEA545C05D14000494120
:1009100028BF41F0004130BD14F580043CBF01F513
:10092000801130BD01F0004545F0FE4141F47001F9
:100930004FF0000030BD7FEA645C1ABF19461046D4
:100940007FEA655C1CBF0B46024650EA013406BFD5
:1009500052EA033591EA030F41F4002130BD00BF94
:1009600090F0000F04BF0021704730B54FF4806451
:1009700004F132044FF000054FF0000150E700BFD2
:1009800090F0000F04BF0021704730B54FF4806431
:1009900004F1320410F0004548BF40424FF000011E
:1009A0003EE700BF42004FEAE2014FEA31014FEA61
:1009B00002701FBF12F07F4393F07F4F81F06051B0
:1009C000704732F07F4208BF704793F07F4F04BFFB
:1009D00041F40021704730B54FF4607401F00045D8
:1009E00021F000411CE700BF50EA010208BF704738
:1009F00030B54FF000050AE050EA010208BF704729
:100A000030B511F0004502D5404261EB41014FF491
:100A1000806404F132045FEA915C3FF4D8AE4FF099
:100A200003025FEADC0C18BF03325FEADC0C18BF7C
:100A3000033202EBDC02C2F1200300FA03FC20FACD
:100A400002F001FA03FE40EA0E0021FA02F114441A
:100A5000BDE600BF70B54FF0FF0C4CF4E06C1CEA33
:100A600011541DBF1CEA135594EA0C0F95EA0C0FA4
:100A700000F0DEF82C4481EA030621EA4C5123EA17
:100A80004C5350EA013518BF52EA033541F4801146
:100A900043F4801338D0A0FB02CE4FF00005E1FBF9
:100AA00002E506F00042E0FB03E54FF00006E1FB43
:100AB00003569CF0000F18BF4EF0010EA4F1FF0486
:100AC000B6F5007F64F5407404D25FEA4E0E6D41C6
:100AD00046EB060642EAC62141EA55514FEAC520D7
:100AE00040EA5E504FEACE2EB4F1FD0C88BFBCF553
:100AF000E06F1ED8BEF1004F08BF5FEA500E50F104
:100B0000000041EB045170BD06F0004646EA0101C9
:100B100040EA020081EA0301B4EB5C04C2BFD4EBFB
:100B20000C0541EA045170BD41F480114FF0000EF4
:100B3000013C00F3AB8014F1360FDEBF002001F062
:100B4000004170BDC4F10004203C35DA0C341BDCDC
:100B500004F11404C4F1200500FA05F320FA04F0AE
:100B600001FA05F240EA020001F0004221F00041E2
:100B700010EBD37021FA04F642EB06015EEA430E55
:100B800008BF20EAD37070BDC4F10C04C4F1200585
:100B900000FA04F320FA05F001FA04F240EA020038
:100BA00001F0004110EBD37041F100015EEA430E09
:100BB00008BF20EAD37070BDC4F1200500FA05F229
:100BC0004EEA020E20FA04F301FA05F243EA0203A8
:100BD00021FA04F001F0004121FA04F220EA0200B7
:100BE00000EBD3705EEA430E08BF20EAD37070BDFD
:100BF00094F0000F0FD101F00046400041EB0101DD
:100C000011F4801F08BF013CF7D041EA060195F0BE
:100C1000000F18BF704703F00046520043EB030378
:100C200013F4801F08BF013DF7D043EA0603704765
:100C300094EA0C0F0CEA135518BF95EA0C0F0CD070
:100C400050EA410618BF52EA4306D1D181EA0301B6
:100C500001F000414FF0000070BD50EA410606BFB0
:100C60001046194652EA430619D094EA0C0F02D1F5
:100C700050EA013613D195EA0C0F05D152EA03363A
:100C80001CBF104619460AD181EA030101F0004158
:100C900041F0FE4141F470014FF0000070BD41F0A1
:100CA000FE4141F4780170BD70B54FF0FF0C4CF47B
:100CB000E06C1CEA11541DBF1CEA135594EA0C0F9A
:100CC00095EA0C0F00F0A7F8A4EB050481EA030EE7
:100CD00052EA03354FEA013100F088804FEA0333CE
:100CE0004FF0805545EA131343EA12634FEA02229C
:100CF00045EA111545EA10654FEA00260EF000415D
:100D00009D4208BF964244F1FD0404F5407402D2AE
:100D10005B084FEA3202B61A65EB03055B084FEA3F
:100D200032024FF480104FF4002CB6EB020E75EB3C
:100D3000030E22BFB61A754640EA0C005B084FEA64
:100D40003202B6EB020E75EB030E22BFB61A7546E1
:100D500040EA5C005B084FEA3202B6EB020E75EB2C
:100D6000030E22BFB61A754640EA9C005B084FEAA4
:100D70003202B6EB020E75EB030E22BFB61A7546B1
:100D800040EADC0055EA060E18D04FEA051545EAA0
:100D900016754FEA06164FEAC30343EA52734FEA49
:100DA000C2025FEA1C1CC0D111F4801F0BD141EAC2
:100DB00000014FF000004FF0004CB6E711F4801F27
:100DC00004BF01430020B4F1FD0C88BFBCF5E06F07
:100DD0003FF6AFAEB5EB030C04BFB6EB020C5FEA17
:100DE000500C50F1000041EB045170BD0EF0004E6C
:100DF0004EEA113114EB5C04C2BFD4EB0C0541EA9E
:100E0000045170BD41F480114FF0000E013C90E69A
:100E100045EA060E8DE60CEA135594EA0C0F08BF5E
:100E200095EA0C0F3FF43BAF94EA0C0F0AD150EA5D
:100E300001347FF434AF95EA0C0F7FF425AF1046F0
:100E400019462CE795EA0C0F06D152EA03353FF418
:100E5000FDAE1046194622E750EA410618BF52EA95
:100E600043067FF4C5AE50EA41047FF40DAF52EA69
:100E700043057FF4EBAE12E74FF0FF3C06E000BF06
:100E80004FF0010C02E000BF4FF0010C4DF804CD13
:100E90004FEA410C7FEA6C5C4FEA430C18BF7FEAD3
:100EA0006C5C1BD001B050EA410C0CBF52EA430C01
:100EB00091EA030F02BF90EA020F0020704710F181
:100EC000000F91EA030F58BF994208BF90422CBF10
:100ED000D8176FEAE37040F0010070474FEA410C09
:100EE0007FEA6C5C02D150EA013C07D14FEA430C27
:100EF0007FEA6C5CD6D152EA033CD3D05DF8040B98
:100F0000704700BF8446104662468C4619466346C9
:100F100000E000BF01B5FFF7B7FF002848BF10F1A0
:100F2000000F01BD4DF808EDFFF7F4FF0CBF0120E5
:100F300000205DF808FB00BF4DF808EDFFF7EAFF61
:100F400034BF012000205DF808FB00BF4DF808ED1C
:100F5000FFF7E0FF94BF012000205DF808FB00BF11
:100F60004DF808EDFFF7CEFF94BF012000205DF89B
:100F700008FB00BF4DF808EDFFF7C4FF34BF0120A8
:100F800000205DF808FB00BF4FEA410C7FEA6C5C73
:100F900002D150EA013C0AD14FEA430C7FEA6C5C73
:100FA00002D152EA033C02D14FF0000070474FF0EB
:100FB000010070474FEA410212F5001215D211D517
:100FC0006FF47873B3EB625212D94FEAC12343F046
:100FD000004343EA505311F0004F23FA02F018BFC8
:100FE000404270474FF00000704750EA013005D191
:100FF00011F0004008BF6FF0004070474FF0000054
:10100000704700BF53B94AB9002908BF00281CBF68
:101010004FF0FF314FF0FF3000F074B9ADF1080C24
:101020006DE904CE00F006F8DDF804E0DDE9022306
:1010300004B070472DE9F047089D04468E46002B0A
:101040004DD18A42944669D9B2FA82F252B101FA7C
:1010500002F3C2F1200120FA01F10CFA02FC41EA8C
:10106000030E94404FEA1C48210CBEFBF8F61FFA11
:101070008CF708FB16E341EA034306FB07F19942AC
:101080000AD91CEB030306F1FF3080F01F8199425F
:1010900040F21C81023E63445B1AA4B2B3FBF8F039
:1010A00008FB103344EA034400FB07F7A7420AD9C0
:1010B0001CEB040400F1FF3380F00A81A74240F2E8
:1010C00007816444023840EA0640E41B00261DB153
:1010D000D4400023C5E900433146BDE8F0878B4288
:1010E00009D9002D00F0EF800026C5E90001304647
:1010F0003146BDE8F087B3FA83F6002E4AD18B4221
:1011000002D3824200F2F980841A61EB03030120CA
:101110009E46002DE0D0C5E9004EDDE702B9FFDEB6
:10112000B2FA82F2002A40F09280A1EB0C014FEA61
:101130001C471FFA8CFE0126200CB1FBF7F307FBBE
:10114000131140EA01410EFB03F0884208D91CEB61
:10115000010103F1FF3802D2884200F2CB804346FE
:10116000091AA4B2B1FBF7F007FB101144EA0144DD
:101170000EFB00FEA64508D91CEB040400F1FF316C
:1011800002D2A64500F2BB800846A4EB0E0440EA5A
:1011900003409CE7C6F12007B34022FA07FC4CEA63
:1011A000030C20FA07F401FA06F31C43F9404FEA56
:1011B0001C4900FA06F3B1FBF9F8200C1FFA8CFE6B
:1011C00009FB181140EA014108FB0EF0884202FABF
:1011D00006F20BD91CEB010108F1FF3A80F0888080
:1011E000884240F28580A8F102086144091AA4B23D
:1011F000B1FBF9F009FB101144EA014100FB0EFEBE
:101200008E4508D91CEB010100F1FF346CD28E45EC
:101210006AD90238614440EA0840A0FB0294A1EB7D
:101220000E01A142C846A64656D353D05DB1B3EBDA
:10123000080261EB0E0101FA07F722FA06F3F1400A
:101240001F43C5E9007100263146BDE8F087C2F1B1
:101250002003D8400CFA02FC21FA03F39140014329
:101260004FEA1C471FFA8CFEB3FBF7F007FB103662
:101270000B0C43EA064300FB0EF69E4204FA02F40E
:1012800008D91CEB030300F1FF382FD29E422DD961
:10129000023863449B1B89B2B3FBF7F607FB163396
:1012A00041EA034106FB0EF38B4208D91CEB010116
:1012B00006F1FF3816D28B4214D9023E6144C91A96
:1012C00046EA004638E72E46284605E70646E3E6A6
:1012D0001846F8E64B45A9D2B9EB020864EB0C0EB0
:1012E0000138A3E74646EAE7204694E74046D1E7BF
:1012F000D0467BE7023B614432E7304609E764446D
:10130000023842E7704700BF38B50D4D2B78102BDF
:10131000044603D90B48012101F018FA02F0BBF989
:101320002A78531C2B70084B0C2101FB023394E8E4
:10133000070083E80700BDE8384002F0AAB900BF03
:10134000800900206443000890090020F8B5054694
:1013500000230C20DEB200FB065251681A4601330E
:101360000029F7D10A4B1B7853FA82F3102B03DDC7
:101370000848022101F0EAF900240C27E3B2B34245
:1013800000D3F8BD07FB0450FFF7BEFF0134F5E7BB
:10139000800900206443000838B5154B1B78834250
:1013A00005460C4603D81348032101F0CFF902F09B
:1013B00072F9114B11480C2101FB05335A78A571C4
:1013C000002323600E4B4A431B786371831899688E
:1013D00051B90C49C3E90144835C0A7813430B708B
:1013E000BDE8384002F055B90C609C60F8E700BFDA
:1013F00080090020644300089009002008090020AB
:1014000074090020BD0A002038B50D46044600F0DE
:101410008FF9C57101462046BDE83840FFF7BCBFD3
:1014200073B50E4605460192009300F0AFF9DDE971
:101430000021C671044600F0C5F92146284602B0D5
:10144000BDE87040FFF7A8BF2DE9F04102F023F995
:101450001D4E1E4F1E4D3278B2FA82F3C3F12003A7
:1014600013F0FF0303D1BDE8F04102F012B90C21E3
:10147000013B4B43F9184C682068486020B9FB5C7D
:10148000886022EA03023270A379DFF84C8003EB14
:10149000430308EB830393E8070085E807000D4B3F
:1014A0002068616803C3A068186002F0F2F8A379AD
:1014B0000C2202FB03882046D8F8043098472046C7
:1014C00000F040FAC7E700BFBD0A0020080900206D
:1014D00074090020680900209009002038B50D4DDE
:1014E0002B78072B044603D90B48042101F02EF971
:1014F00002F0D1F82A78531C2B70084B0C2101FB09
:10150000023394E8070083E80700BDE8384002F0A2
:10151000C0B800BFBC0A0020644300085C0A002079
:10152000134A002310B51370124A0124194604FA15
:1015300003F00133082BC2E90111107002F10C0213
:10154000F5D10D4840F2012303800C4B43600C4B56
:101550008360FFF7D9FE0B484FF4807303800A4B7A
:101560004360BDE81040094B8360FFF7B7BF00BF81
:10157000BC0A00200809002084090020DD2300089F
:1015800069430008500A00205524000876430008EB
:1015900010B51A481A4C00F009FF1A4800F006FF6F
:1015A000194800F003FF194800F000FF184800F048
:1015B000FDFE204600F0FAFE1649174800F0F6FE40
:1015C0001649174800F0F2FE164A1749174800F06E
:1015D000EDFE00F04DF900F0C9F9FFF7A1FF20463C
:1015E00000F0E4FE124800F0E1FE124800F0DEFEDA
:1015F0002046BDE8104000F0D9BE00BF8B43000874
:101600008D4300088F430008CC4300080A440008BB
:1016100048440008864400088A4400089E440008A4
:10162000A5440008B1440008BA440008C6440008B4
:10163000D9440008FC4400082DE9F0410D4E0E4F3E
:1016400000254FF00C083378ECB2A34201D8BDE876
:10165000F08108FB047402F01EF86378012B05D1B9
:1016600002F017F8636898470135ECE702F011F8CB
:10167000FAE700BFBC0A00205C0A0020F8B51D484C
:101680001D4E1E4D1E4F00F091FE1E4800F08EFEB6
:101690001D4800F08BFE00243378E1B28B4212D853
:1016A00014481A4E1A4D1B4F00F080FE1A4800F0E5
:1016B0007DFE00243378E1B28B420FD8BDE8F840BC
:1016C0000C4800F073BE0C2359436A1838469368DF
:1016D000695C527800F06AFE0134DDE70C2359435F
:1016E0006A1838469368695C527800F05FFE0134EE
:1016F000E0E700BF8D43000880090020900900202A
:101700003E4500081845000830450008BC0A002086
:101710005C0A0020774500086845000808B5FFF717
:1017200093FEFFF789FFFAE7004870476809002039
:1017300038B5094D01F0AFFF2C681CB907480121ED
:1017400001F004F8064A23682B6013680133136024
:1017500001F09FFF204638BDF00D0020A045000895
:10176000F40D002010B5044601F095FF054B1A68F2
:101770002260054A1C601368BDE81040013B1360FD
:1017800001F087BFF00D0020F40D002038B50A4DA0
:1017900001F081FF2C681CB90848022100F0D6FF37
:1017A0002368074A2B6000232373136801331360F7
:1017B00001F06FFF204638BDE00D0020A045000875
:1017C000E40D002070B50379022B04460E46154641
:1017D00003D00948032100F0B9FF402D03D9064882
:1017E000042100F0B3FF25732A46314604F10D00B1
:1017F000BDE87040FEF7E4BCA045000810B50379D1
:10180000022B044603D00348052100F09FFF04F19A
:101810000D0010BDA045000810B5044601F03BFFC7
:10182000054B1A682260054A1C601368BDE8104029
:10183000013B136001F02DBFE00D0020E40D0020FE
:1018400010B5044601F027FF074B20691A68226093
:10185000064A1C601368013B136002F053FBBDE8AD
:10186000104001F016BF00BFE80D0020EC0D002075
:1018700010B501F010FF2A4B2A491960002301F12D
:101880000C0201201C46072B03F1010302F8080C8F
:1018900014BF42F80C2C4C65082B02F10C02F2D15B
:1018A000214B00241C6001F0F4FE01F0F4FE1F49FE
:1018B0001F4B01F15002196002202346072B03F150
:1018C000010302F84C0C14BF42F8502CC1F830420E
:1018D000082B02F15002F1D1164B00241C6001F0DC
:1018E000D8FE01F0D8FE1449144B01F1140219601E
:1018F00004202346072B03F1010302F8100C14BF48
:1019000042F8142CC1F88C40082B02F11402F1D1DA
:101910000B4B0022BDE810401A6001F0BABE00BFB8
:10192000F00D0020F80D0020F40D0020C00A00206A
:10193000E00D0020E40D0020400D0020E80D002007
:10194000EC0D00200379022B05D0042B05D0012BD0
:1019500005D1FFF707BFFFF75FBFFFF771BF024871
:10196000FE2100F0F3BE00BFA045000810B501F055
:1019700092FE174B1749184A196000231360184646
:1019800001F110020F2B03F1010314BF42F8102CD8
:10199000C1F8F000102B02F11002F3D10F4B00241C
:1019A0001C6001F076FE01F076FE0D4B01221C60FA
:1019B0005A6001F06EFE0B484FF4E06303800A4B5F
:1019C0004360BDE81040094B8360FFF79DBC00BF3A
:1019D000580E0020780E0020740E00205C0E0020AF
:1019E000600E0020680E0020D51A0008A4450008EB
:1019F0002DE9F8431A4E154680460F46994601F0E8
:101A00004AFE3268BAB901F046FE164B1C6804BBA8
:101A10001548012100F09AFE01F03BFEB9F1010FDB
:101A20003368A56018BF002584F804806771E560FD
:101A30002360346006E01379434508D15379BB42F3
:101A400005D1956001F025FE0120BDE8F8831268FC
:101A5000D8E722681A60054A136801331360DBE790
:101A6000740E0020580E0020B44500085C0E0020C3
:101A7000F8B505460E4601F00EFE134803681946F8
:101A80001C461CB901F005FE204619E02279AA4245
:101A9000226816D16779B74213D19C4214BF0A60FD
:101AA000026001F0F8FD094B1A682260084A1C60C8
:101AB0001368013B136001F0ECFD01F0EAFD012029
:101AC000F8BD21461446DCE7740E0020580E0020B5
:101AD0005C0E002070B5054601F0DDFD1A4B1C6858
:101AE0001A4B00221E681A6001225A6001F0D1FDD3
:101AF000EB79022B00D104B970BD01F0CCFDA568D3
:101B0000B5428CBFAD1B0025A56001F0C2FD0DB133
:101B10002468F0E7FFF70CFE6379C3710146207972
:101B2000FFF73AFC01F0B7FDE36853B1A36001F0A1
:101B3000B0FD2468002DDED069792879FFF798FF81
:101B4000D9E72546F3E700BF740E0020600E0020A1
:101B50000B4B1B6810B593B10A4B1A681044186000
:101B60005A68012A0BD100245C60FFF7E1FD0223D3
:101B7000C37101462046BDE81040FFF70DBC10BD03
:101B8000740E0020600E0020014B1860704700BFEB
:101B90008C0F0020024B1B6803B11847704700BF31
:101BA0008C0F0020014B1860704700BF7C0F002095
:101BB000024B1B6803B11847704700BF7C0F002021
:101BC000014B1860704700BF800F0020024B186067
:101BD000024B1960704700BF880F0020840F00205F
:101BE000024B1B6803B11847704700BF880F0020E5
:101BF000024B1B6803B11847704700BF840F0020D9
:101C0000014B1878704700BF780F0020014B187007
:101C1000704700BF780F00202DE9FF410D460446B4
:101C2000A0B368461A4F00220646A95C71B1A1F123
:101C30000A03DBB2162B14D827FA03F3DB4313F0A5
:101C400001030ED110326A4402F8103C4FF0000834
:101C50005FFA88F31A0104EB0317A05840B9032078
:101C600011E00132102A00F8011BDED104200AE045
:101C70003146FEF749FB08F101080028E8D17B68EE
:101C800028469847022004B0BDE8F0810120FAE719
:101C900009004000000000002DE9F0470FF2B809EC
:101CA000D9E90089304F04460D464FF0000A00265E
:101CB0002D4B002220462946FFF752F980B926A76E
:101CC000D7E90067DFF8A0904FF00008274B00220B
:101CD00020462946FFF730F900BB5046BDE8F087A3
:101CE0001DA3D3E9002320462946FFF739F950B157
:101CF0002046294642464B46FEF7D6FF0AF1050A22
:101D000004460D46D4E72046294632463B46FEF7B8
:101D1000CBFF0AF1010A04460D46C9E710A3D3E937
:101D2000002320462946FFF707F950B120462946EF
:101D300032463B46FEF78EFEAAF1050A04460D46E2
:101D4000C4E72046294642464B46FEF783FE0AF189
:101D5000FF3A04460D46B9E700000000006AF8406B
:101D6000F168E388B5F8E43E000024400000F03F4D
:101D70002DE9D0430FF26009D9E900891849194FBC
:101D8000044600260020002C08DC0FF24C09D9E99B
:101D90000089144F00267CB9BDE8D083042C05DDF2
:101DA00042464B46FEF756FE053CECE732463B46C4
:101DB000FEF750FE013CE6E7231D05DA42464B469E
:101DC000FEF772FF0534E6E732463B46FEF76CFF4E
:101DD0000134E0E7AFF3008000000000006AF84043
:101DE0000000F03F000024400A2970B505460C466B
:101DF00002D10D21FFF7F8FF25B120462B46BDE8A3
:101E000070401847034A136813B1591C11601C70C5
:101E100070BD00BF900F0020024B01461868FFF70D
:101E2000E3BF00BF940F00202DE9F04F2DED068B8E
:101E3000834691B015460B78002B00F0AE82252B1F
:101E400007D001F1010A19465846FFF7CDFF039567
:101E5000E6E04C78302C2DD108EE104A8C7801F158
:101E6000030A00232A2C019341D155F8043B002B8F
:101E7000B8BF5B4206935346B8BF022213F8014B2A
:101E8000B8BF01929A462E2C5CD19AF800402A2CB9
:101E900031D000230AF1010A02930A22A4F130038F
:101EA000092B2FD8029B02FB0343303B1AF8014B4E
:101EB0000293F3E72D2C05D0202308EE103A01F110
:101EC000020ACEE7202308EE103A8C7801F1030ACB
:101ED0000223C7E7069B02FB0344A4F130031AF870
:101EE000014B0693A4F13003092BF3D9CBE7002370
:101EF00006930A22F6E755F8043B9AF8014002934C
:101F00000AF1020A6C2C11D19AF80040019B6C2C4A
:101F100013BF43F0040343F00C039AF8014001930C
:101F200012BF0AF1010A01930AF1020A002C00F023
:101F30003482662C4CD8572C08D8452C00F0A6804B
:101F4000214681E74FF0FF330293DBE7A4F158030A
:101F50000E2BF5D801A252F823F000BF0D20000887
:101F6000411F0008411F0008411F0008411F0008D1
:101F7000411F0008411F0008411F0008411F0008C1
:101F8000411F0008991F000811200008A322000823
:101F90008D2000088D2000080227019B13F0080304
:101FA00000F08181EA1D22F007021346642C53F8E9
:101FB000085B5668039340F08A81002E80F2878187
:101FC000019B6D4243F0010366EB460601937EE1FF
:101FD000A4F16F03DAB2092AB2D8092BB0D801A252
:101FE00052F823F09F220008411F0008411F0008FB
:101FF000411F000827200008411F0008A3220008F5
:10200000411F0008411F00080D2000081027C4E7E9
:102010002B46584653F8041B0393C9B2FFF7E4FE5E
:10202000039D514607E72B4653F8045B0393A34BEC
:10203000002D08BF1D462846FEF7E2FA029B002B42
:10204000044602DB984228BF1C46019B9E0714D51C
:10205000029E2E44297809B1B54212D1069B9C42BA
:10206000DED220215846FFF7BFFE0134F6E718EE16
:10207000101A5846FFF7B8FE0134069BA342F6D863
:10208000E6E758460135FFF7AFFEE3E7073525F0F1
:102090000703F3E80289039342464B46404649460C
:1020A000FEF772FF002840F0E280029B002BB8BFD1
:1020B000062302930022002340464946FEF73CFFD8
:1020C00000283FD009F10043CDF810800593DDE9E9
:1020D00004892D2729F0004309EE903A09EE108A71
:1020E000774B51EC190B4FF0FF32FEF74DFF48B91B
:1020F000734B51EC190B4FF0FF32FEF727FF00280E
:1021000000F04081662C1FD1029B5842FFF730FE41
:102110006C4B0022FEF79EFC0B46024649464046A9
:10212000FEF7E2FA80468946FFF7B6FD029B20EAF9
:10213000E0752B441C2B00F32B8100262D2F39D06A
:1021400008AF3BE02B27C5E7002200234046494665
:10215000FEF7E8FE0546002840F01C81494640464F
:10216000FFF79AFD029BC01AFFF702FE554B0022B3
:10217000FEF770FC42464B46FEF7B6FA80468946AB
:10218000FFF78AFD632800F30381029B192B00F3FC
:10219000FF806FF062068642B8BF06463046FFF702
:1021A000E7FD02460B4640464946FEF77DFD804668
:1021B0008946C3E78DF820700DF12107029B5B4231
:1021C00007932846FFF7D4FD02460B4641EC1A0B55
:1021D00040464946FEF768FDFEF7ECFE0290FEF72A
:1021E000CFFB53EC1A2BFEF735FC02460B4640465C
:1021F0004946FEF777FA3B468046681C04BF2E220C
:1022000003F8012B029A1F46303207F8012B079A78
:10221000013D95428946D4DA662C11D0002EBABF12
:1022200076422D222B220A209A70B6FBF0F202F1A0
:10223000300100FB126230325C70D9705F1D1A7180
:1022400000233B7008A8FEF7DBF9019B99070446C1
:102250001DD508AD15F8011BE9B9069BA3427FF611
:10226000DFAE20215846FFF7BFFD0134F5E7164BDE
:1022700008AF1A7807F8012B13F8012F002AF8D1BC
:10228000DEE718EE101A5846FFF7AEFD0134069B44
:10229000A342F6D8DDE75846FFF7A6FDDAE70827A0
:1022A0007BE60A2779E62A1D0392019A2D6812F02F
:1022B000040658D0642C09D1EE177EE68E43000840
:1022C000FFFFEF7F0000E03FBA4500081E46782C74
:1022D0000CBF2723072302930DF120080024284672
:1022E00031463A460023FEF78DFED2B2092A334624
:1022F0000E4688BF0299AC4684BF5218D2B2BC4584
:1023000002F1300273F1000308F8012B054604F1D5
:10231000010903D3B9F1200F28D11F24019BDA074B
:1023200008D509F140030DEB03022D2302F8203CF0
:1023300004F10209019B9B074C461FD509F1FF39A7
:1023400008AB584613F80910FFF74EFDB9F1000F1E
:10235000F4D1069BA3427FF663AE20215846FFF7D7
:1023600043FD0134F5E7642CB1D1A5E74C46B6E74F
:1023700018EE101A5846FFF737FD0134069BA342AA
:10238000F6D8DBE7074B8DF820700DF1210770E7D9
:10239000054BF8E700252E46D0E611B0BDEC068BC4
:1023A000BDE8F08FC1450008BE4500080FB407B571
:1023B000064B04AA186852F8041B0192FFF734FD7B
:1023C00003B05DF804EB04B0704700BF940F002029
:1023D00008B1014B18607047940F002038B50446CF
:1023E000FFF70CFA05782046FFF708FA0146114876
:1023F000FFF712FC0138032819D8DFE800F0130CAE
:1024000002110D2D07D00A2D05D00B48FFF7CEFF86
:102410000A48FFF7CBFFBDE838400948FFF7C6BFC1
:102420000848F6E70848FFF7C1FF0848F1E7084801
:10243000EFE700BFBC100020C5450008D2450008EA
:1024400059460008F34500080146000816460008F2
:102450004E46000873B500232B4D2C4C8DF80730E9
:10246000284600F007F9064608B102B070BD01F039
:1024700012F9284600F01EF98DF8070001F009F95D
:1024800023781E2B3BD89DF807300D2B03D09DF8E9
:1024900007300A2B1AD10D20FFF7BEFC0A20FFF7E8
:1024A000BBFC23789DF807202344D2B25A702378CE
:1024B000174A0133234400265E7023780233DBB2CF
:1024C00031460120FEF7ACFF2670C9E79DF80700F2
:1024D000FFF7A2FC9DF80730082B06D1237823B123
:1024E0002378013BDBB22370BAE723785A1CD2B2BF
:1024F00022709DF807202344D2B25A70B0E70548F5
:102500002021FFF753FFDFE7BC110020980F0020C8
:10251000990F00205B460008F7B51048104C114D8C
:10252000114E124FFFF742FF216839B90E48019151
:10253000FFF73CFF0199084603B0F0BDA2682846AA
:10254000FFF734FFE16821B13846FFF72FFF103461
:10255000EAE73046FFF72AFFF9E700BF8C4600089C
:10256000BC100020A54600088D430008BA460008AC
:1025700070B50E4C23880F2B16D80D4906681D0127
:1025800001EB03124E510133456855609BB28568DB
:10259000C068D060956018010022238001EB03130E
:1025A000C3E901220A50DA6070BD00BFC8110020E3
:1025B000BC1000201FB50F490F484FF4807200F087
:1025C00053F800210D4B0A4604314029C3E900228B
:1025D0009A6003F11003F7D1094B0093094B019363
:1025E000094B6846CDE90232FFF7C2FF05B05DF83E
:1025F00004FB00BFB90F0020BC110020BC1000205C
:10260000C746000819250008CC46000838B5002246
:1026100093B21B011146C4580132002CF8D1084A6C
:10262000128812FA81F2102A03DC0446C518AC4263
:1026300000D138BD2046FFF79BFF1034F7E700BFFD
:10264000C811002007B58DF8070001F024F89DF8A7
:102650000710044800F013F803B05DF804EB01F034
:1026600018B800BFBC110020002303608380C28023
:10267000816070478088B0FA80F040097047038815
:102680008268D1540288C188013292B2B2FBF1F360
:1026900001FB132283880280994203BF43880133E0
:1026A0009BB2013303BFB3FBF1F201FB1233438052
:1026B00083807047828830B56AB143888168CC5C7A
:1026C000C18801339BB2013AB3FBF1F501FB15332D
:1026D000828043802246D0B230BD00002DE9F04711
:1026E000DFF86490124E4FF0340A044688461746CD
:1026F0000021524648461D4601F00CFC0D4B0E4988
:10270000C3F800800D4B34601F600D4F28463D60BC
:102710000422A047386833680A49042210449847C5
:1027200038683368524649460830BDE8F0471847D4
:102730001012002014120020001200200C120020A1
:102740000412002008120020CA1100203D4B1B6813
:102750002DE9F74F06460F46002B6FD03A4D2B68F8
:10276000002B6BD000F097FF3848DFF8FC80FFF7B4
:102770001DFE3748FFF71AFE3A4631463548FFF747
:1027800015FEFEF7D1FF3449C37901930B68D8F8E1
:102790000040324A90F8049090F805B090F806A0F6
:1027A000032B98BF013304F0030498BF0B600D2185
:1027B0006143531800201F7250505860314618462C
:1027C000C8F8004001F016FC254B019A1B6880F800
:1027D00009B0013480F80AA080F80B900273C8F8A1
:1027E000004003B198471F4C2B681B492068042206
:1027F000984720682B681C49042210449847206899
:102800002B68164934220830984700F042FFFFF742
:10281000F7F950B9FFF7E4F93220FFF7C9F9FFF7EC
:10282000E7F93220FFF7C4F9F4E74FF4FA70FFF745
:10283000BFF903B0BDE8F04FFFF7ACB903B0BDE896
:10284000F08F00BF10120020141200208D430008EA
:10285000DE460008F046000800120020CA110020E1
:102860000C120020041200200812002070B51A4C2F
:10287000236886B003B3194A1268EAB1184D194E9D
:102880002868042205A99847286823681649164C29
:102890003422083098471548FFF788FD1448FFF7A1
:1028A00085FD05991348FFF781FD0025059BAB4287
:1028B00004D80E48FFF77AFD06B070BD0294237A63
:1028C0000193237B0093E37AA27A617A3046FFF783
:1028D0006DFD01350D34E9E71012002014120020BF
:1028E0000412002041470008CA1100208D4300084F
:1028F000154700082C47000870B515483422002100
:1029000001F008FB134B1B680BB3134C2368F3B1A6
:10291000124B1B6803B19847114D1249124E28689B
:1029200000230B60336004222368984728682368DB
:102930000422314610449847286823680449083027
:1029400034229847BDE870400848FFF72FBD70BD9E
:10295000CA11002010120020141200200C120020B6
:10296000041200200012002008120020A1470008D5
:1029700010B400240460C0E901125DF8044B8373B5
:10298000104701234370436818470023437083684E
:1029900018474378012B0BBF00230123437043707A
:1029A0000CBF8368436818470278012A38B504468B
:1029B00009D1837B45889D420DD1457825B9427068
:1029C000FFF7DFFFA57338BD012DFCD10025457051
:1029D000FFF7DBFFF6E75B008373F4E738B500F041
:1029E000ABFD642000F00AFF052000F09FFC42F2DE
:1029F0001074002000F09AFC0546642000F0FEFEF2
:102A0000EB0704F1FF3401D5002CF2D100F09AFD60
:102A1000B4FA84F0400938BD08B500F08DFD0620F9
:102A200000F084FC00F08EFDBDE80840642000F05A
:102A3000E5BEF8B50E4615460446FFF7CFFF00F099
:102A40007BFD032000F072FCC4F3074000F06EFC35
:102A5000C4F3072000F06AFCE0B200F067FC002439
:102A6000A7B2BD4204F1010403D800F06BFD0020C1
:102A7000F8BD002000F05AFCF055F1E770B50446AF
:102A800015464E1E01232DB900F05CFDBDE87040D7
:102A9000FFF7A4BF9BB1FFF7A1FFFFF7BDFF00F059
:102AA0004BFD022000F042FCC4F3074000F03EFC66
:102AB000C4F3072000F03AFCE0B200F037FC16F84F
:102AC000010F013400F032FCE3B2013D23B9002DC7
:102AD000DAD000F037FDD5E70023D4E7C0F30B03CD
:102AE00010B50446E3B9FFF779FFFFF795FF00F053
:102AF00023FD202000F01AFCC4F3074000F016FC70
:102B0000C4F3072000F012FCE0B200F00FFC00F06C
:102B100019FD642000F072FEBDE81040FFF75EBFB3
:102B2000012010BD254AD2F8883043F47003C2F862
:102B30008830234B1A68002142F001021A60996024
:102B40001A6822F0847222F480321A601D4A5A6098
:102B50001A6822F480221A60D9601A6C1A4942F06D
:102B600080521A640A6842F440420A609A689A6085
:102B70009A689A609A6842F480529A60134A5A603E
:102B80001A6842F080721A601A689201FCD5104AE5
:102B900040F2037111609A6822F003029A609A6809
:102BA00042F002029A60064A936803F00C03082B75
:102BB000FAD1024B4FF000629A60704700ED00E0DE
:102BC00000380240103000240070004010640107FB
:102BD000003C0240184A1949936803F00C03042B87
:102BE0000DD0082B0DD0164B0B60134B154A9B686C
:102BF000C3F30313D25C0B68D3400B607047124BD6
:102C0000F2E75068536840025FBF526803F03F002C
:102C10000B4BB3FBF0F35CBFC2F388125343064A7D
:102C20005268C2F3014202F1010248BF0023520080
:102C3000B3FBF2F3D8E700BF0038024010000020D9
:102C40000024F4000000002040787D01034B40F098
:102C5000BF6040F40030D860704700BF00ED00E076
:102C6000017870B501F01F0301269E40C3784D091D
:102C7000CBB10F4BDA684378D243C2F30222C2F1E0
:102C80000404E4B2A340DCB20F2343FA02F28378D7
:102C90001340084A23431B011144DBB281F800337F
:102CA00042F8256070BD034B203543F82560F9E7F5
:102CB00000ED00E000E100E02DE9F04100220126F6
:102CC00003250B6806FA02FC3CEA030331D10368D2
:102CD000540005FA04FE23EA0E0303600B79D0F8D2
:102CE00000806FEA0E0703FA04FE013B4EEA080E6D
:102CF000012BC0F800E011D883681F4087604B7932
:102D00008768A3403B438360436823EA0C03436026
:102D10008B79476893409BB23B434360C36805FA95
:102D200004F723EA0703C360CB79C768A3403B439A
:102D3000C3600132102AC4D1BDE8F08181617047BF
:102D400009048161704701F00703C90800EB8100A5
:102D500010B5016A9B000F249C4021EA0401016226
:102D6000016A9A400A43026210BD0000014B1860DC
:102D7000704700BF000047421D4A936803F00C03F0
:102D8000042B10B51AD0082B1AD01A4B184A03601E
:102D900093681949C3F30313CC5C0368E3404360B1
:102DA0009468C4F382240C5D23FA04F4846092686E
:102DB000C2F342328A5CD340C36010BD0F4BE5E7DB
:102DC0005368516813F4800F01F03F01536814BF3A
:102DD0000A4A084AB2FBF1F1054A5268C2F30142BD
:102DE000C3F3881301324B435200B3FBF2F3CDE738
:102DF000003802400024F4001400002040787D01D7
:102E0000044B1A6B11B110431863704722EA00009B
:102E1000FAE700BF00380240044B1A6C11B11043AE
:102E20001864704722EA0000FAE700BF0038024049
:102E3000044B5A6C11B110435864704722EA0000E9
:102E4000FAE700BF003802404209012A074B07D1C8
:102E50001B6800F01F0023FA00F000F0010070472B
:102E6000022A0CBF1B6F5B6FF3E700BF0038024004
:102E7000038A30B50D469BB2EA88898923F4405312
:102E8000134303828389044623F4B0522889AB8814
:102E90000343688922F00C0203431204120C9BB214
:102EA0001343A381A38A9BB223F440730B4385B0E1
:102EB000A3826846FFF760FF174B9C4203D003F5DF
:102EC00080639C4226D1039BA189192253432A681F
:102ED0000D044FF064014CBF52009200B3FBF2F3BB
:102EE000B3FBF1F001FB10330201A08900044BBFDA
:102EF000DB001B01323332334BBFB3FBF1F3B3FBC7
:102F0000F1F303F0070303F00F0313439BB2238194
:102F100005B030BD029BD7E700100140838921B185
:102F20009BB243F400538381704723F400531B0486
:102F30001B0CF8E7C1F30801818070478088C0F35B
:102F400008007047012310B5C1F342149C4201F000
:102F50001F0103FA01F105D10C3003683AB119439E
:102F6000016010BD022C0CBF10301430F5E723EACD
:102F70000101F5E70388194214BF012000207047C2
:102F8000C1F3421210B5012301F01F04012A03FA14
:102F900004F30ED1828992B21340028892B26BB1CF
:102FA0000123090A03FA01F10A4214BF184600205E
:102FB00010BD022A0CBF028A828AECE71846F7E7A6
:102FC000090A01238B40DB439BB2038070470388CF
:102FD00010B503F441524C880B8823438C8823435B
:102FE000CC8823430C8923434C8923438C89234376
:102FF000CC89234313439BB20380838B23F4006368
:103000001B041B0C83830B8A038210BD038821B130
:103010009BB243F040030380704723F040031B043E
:103020001B0CF8E7808980B2704781817047038963
:10303000194214BF0120002070470000014B1860A6
:10304000704700BF00300040014B5860704700BF20
:1030500000300040014B9860704700BF00300040D6
:10306000024B4AF6AA221A60704700BF00300040A7
:10307000024B4CF6CC421A60704700BF0030004053
:103080000279837930B5056802F1804202F59E32FB
:10309000E94323B3144B1C680C401C605C6821405E
:1030A00059601168294311609968026821EA020198
:1030B0009960D96821EA0201D9604179102906D1C5
:1030C000996811439960D9680A43DA6030BD01F10B
:1030D000804303F59E3319680A431A60F6E71368C4
:1030E0000B401360F2E700BF003C0140034B5B69FB
:1030F000034214BF01200020704700BF003C014084
:10310000FFF7F4BF014B5861704700BF003C01401E
:1031100001F0030301F0FC0101F1804101F59C3154
:1031200010B58A689B000F249C4022EA04028A6042
:103130008A6898401043886010BD000010B50446AE
:1031400008488021FFF716FF0028F9D021460548DE
:10315000044CFFF7EFFE40212046FFF70BFF00284D
:10316000F9D010BD0010014007B501210420FFF780
:1031700047FE4FF4005240F2013304486946CDE95E
:103180000023FFF799FD03B05DF804FB000802403F
:1031900002484FF40051FFF7D1BD00BF00080240C4
:1031A00002484FF40051FFF7CBBD00BF00080240BA
:1031B00070B5012188B004460846FFF721FE0121C1
:1031C0001020FFF735FE224807220921FFF7BBFD3B
:1031D0001F4807220A21FFF7B6FD1E4B1C484FF47B
:1031E000C06202A9CDE90223FFF766FD04941A4CE0
:1031F000002504A94FF440232046CDE90553ADF83E
:103200001C50FFF735FE252301268DF8043001A858
:1032100002238DF805308DF807608DF80650FFF712
:103220001FFD204640F22771FFF7CAFE32462046B6
:1032300040F22551FFF786FE2A46204640F22771CC
:10324000FFF780FE31462046FFF768FE08B070BDEC
:1032500000000240020300010010014013B50023EA
:103260000C4C8DF807300B4840F22551FFF788FED3
:10327000012803D09DF8070002B010BD40F225518F
:103280002046FFF79DFE2046FFF758FEC0B28DF89E
:103290000700E8E70010014000B5012189B00846A9
:1032A000FFF7AEFD01214FF48050FFF7C1FD40F262
:1032B0000223E02201A91B48CDE90123FFF7FCFC12
:1032C000052211461748FFF73EFD16480522062144
:1032D000FFF739FD134805220721FFF734FD0023CE
:1032E0004FF48272ADF80C30ADF80E20ADF810300E
:1032F0004FF40072ADF81230ADF81430ADF818305C
:10330000ADF81A3003A907230748ADF81620ADF829
:103310001C30FFF75CFE04480121FFF777FE09B07F
:103320005DF804FB000002400030014038B50C4D50
:10333000044602212846FFF77AFE0028F9D02146EC
:103340000748074CFFF771FE01212046FFF76FFE8B
:103350000028F9D00248FFF765FEC0B238BD00BFB3
:103360000030014000B5012189B00220FFF748FD7F
:1033700001214FF48040FFF74FFD40F202234FF44C
:10338000604201A91B48CDE90123FFF795FC1948CC
:1033900005220D21FFF7D7FC164805220E21FFF765
:1033A000D2FC144805220F21FFF7CDFC4FF48272A6
:1033B0000023ADF80E204FF40072ADF80C30ADF8DC
:1033C0001030ADF81230ADF81430ADF81620ADF86D
:1033D0001A302022072303A90748ADF81820ADF8BA
:1033E0001C30FFF7F4FD04480121FFF70FFE09B080
:1033F0005DF804FB000402400038004038B50C4D75
:10340000044602212846FFF712FE0028F9D0214683
:103410000748074CFFF709FE01212046FFF707FE8A
:103420000028F9D00248FFF7FDFDC0B238BD00BF4B
:103430000038004030B5012187B00220FFF7E0FCE2
:1034400001210420FFF7DCFC01210846FFF7D8FC2E
:1034500001214FF48040FFF7EBFC4FF4805440F221
:10346000013302A91E48CDE90243FFF725FC21469E
:103470001B48FFF763FC4FF4004302A9194802936D
:103480004FF48074FFF718FC4FF4407302A91648FC
:10349000ADF80C300294FFF70FFC08210020FFF775
:1034A00037FE01254FF4406304A8ADF814300494AE
:1034B0008DF81650FFF7E4FD17238DF80430032331
:1034C0008DF8053001A800238DF806308DF80750DF
:1034D000FFF7C6FB2046FFF715FE07B030BD00BF63
:1034E00000040240000802400000024002484FF47D
:1034F0008051FFF725BC00BF0004024002484FF492
:103500008051FFF71BBC00BF0004024013B501212E
:103510000846FFF775FC102440F201336946054860
:10352000CDE90043FFF7C8FB02482146FFF706FC40
:1035300002B010BD0000024001481021FFF700BC9E
:103540000000024001481021FFF7F8BB00000240D4
:1035500008B5FFF709FEFFF7D9FFFFF76BFFFFF78D
:103560009BFEFFF7FFFE4FF4E130FFF721FEBDE8C1
:1035700008400148FEF72CBF3D31000813B572B674
:1035800000F022F9FFF7CEFA254B2648264CDA1C2C
:10359000121AC11E22F00302994288BF0022234959
:1035A000FCF70EFE224B2348DA1C121AC11E22F031
:1035B0000302994288BF0022002100F0ABFC00F01A
:1035C000B3F800F0BEF800F0CDF81B4B1B1B9B10AE
:1035D000019300230093009A019B9A4212D3174C47
:1035E000174B1B1B9B10019300230093009A019B18
:1035F0009A420ED3FFF7ACFF62B602B0BDE81040AE
:1036000000F040BA009B54F823309847009B0133E8
:10361000E0E7009B54F823309847009B0133E4E730
:1036200008090020000000201C4C00081C4C000869
:1036300018140020080900201C4C00081C4C00082D
:103640001C4C000801480121FFF780B8CC47000856
:1036500001480221FFF77AB8CC470008014803214E
:10366000FFF774B8CC47000801480421FFF76EB893
:10367000CC47000801480521FFF768B8CC4700088F
:1036800001480621FFF762B8CC4700087047704731
:10369000704762B6704772B6704700000B4A1368F5
:1036A00010B50B4C013301201360FEF751FA23686B
:1036B0000A2B04D10023236000F048FA01E0002B1C
:1036C000FAD023680133236010BD00BF1C12002014
:1036D0001812002082B072B6034B1B68019362B6C9
:1036E000019802B0704700BF1C12002007B50023EC
:1036F0008DF80730FFF7B2FD8DF807009DF8070041
:1037000003B05DF804EBFEF79DBF08B54FF4807081
:10371000FFF7F6FC38B100F06BF9BDE808404FF454
:103720008070FFF7EFBC08BD08B501214FF4804061
:10373000FFF77EFBBDE8084001214FF08050FFF706
:103740006BBB08B50120FFF711FB2120FFF77CFBC5
:103750000028FAD0FFF73EFABDE808404FF4407069
:10376000FFF774BA37B5154B4FF47A721B68B3FB89
:10377000F2F3012401930025FF2368468DF8003001
:103780008DF801408DF802508DF80340FFF768FA7C
:10379000019B013BB3F1807F05D309482146FEF729
:1037A000D5FF03B030BD4FF0E022F0215361054B4F
:1037B00083F82310072395611361F2E710000020BE
:1037C000D347000800ED00E0EFF30880074B084AFC
:1037D0000849D21A0A6072B6074A834202D362B617
:1037E0000868704743F8042BF7E700BF181800205B
:1037F0000000022020120020EBBEADDE37B54FF0F6
:10380000E021002818BF01388B6900934B6903FB46
:1038100000005C1C4FF47A73B0FBF3F0009B019343
:103820000022824201D303B030BD8B690093019D19
:10383000009B9D4239BF019D009B019B009D3ABFAB
:10384000E31A5B195B1B1A44009B0193E9E738B547
:103850000446FFF73FFF0546FFF73CFF431BA3422B
:10386000FAD338BDBFF34F8F0549064BCA6802F43F
:10387000E0621343CB60BFF34F8F00BFFDE700BF93
:1038800000ED00E00400FA0508B545F25550FFF7D9
:10389000D5FB0620FFF7D8FB4FF6FF70FFF7DAFBEA
:1038A000FFF7DEFBBDE80840FFF7E2BB08B572B6E4
:1038B000FFF7D6FB62B608BDFFF7A0BD07B5FFF75F
:1038C00015FE6020FFF7F8FF0020FFF7F5FF0190DD
:1038D000FFF714FE019803B05DF804FB07B50190F3
:1038E000FFF704FE0198FFF7E7FF0020FFF7E4FF72
:1038F0000190FFF703FE019803B05DF804FB08B5E3
:103900000320FFF7EBFF0230C0B208BD38B5044614
:103910000D46FFF7EBFD1F2C0BD82034E0B2FFF76C
:10392000CBFF04462846FFF7C7FFFFF7E7FD204619
:1039300038BD04F11F03DBB2022B204601D9FF2C56
:10394000EDD1FFF7B9FF0446EFE708B57021072076
:10395000FFF7DCFF00F0700008BD0021E120FFF759
:10396000D5BF0021FF20FFF7D1BF08B5FFF7F9FF52
:10397000C0F3420008BD08B5FFF7F7FFC31F584268
:10398000584108BD0628F8B505460F4602D00DD8A7
:1039900001280DD8FFF7B3FF0446FFF7A7FD05F197
:1039A0000A00C0B2FFF788FF3E1914E0082801D0D2
:1039B0000024F9E7FFF7D9FF06280546F8D8FFF7F6
:1039C0007DFF0446FFF792FD6120EBE70020FFF743
:1039D00073FF07F8010BB742F8D1FFF78FFD44EAF8
:1039E000052080B2F8BD01460820FFF7CBBF0000DC
:1039F00010B51D4B1B78B3B3FFF7A7FF40281CD0B1
:103A000005D810280FD0202815D00E210EE06028F0
:103A1000FBD1FFF7B0FF30BB1448FFF7E4FF134AB8
:103A200020230C2114E0FFF798FF0921BDE8104086
:103A30000720FDF7E9BC0A21F8E7FFF79CFF90B9E2
:103A40000A48FFF7D0FFC3B2202B06D1074A0B214B
:103A5000BDE810400720FDF7E3BCBDE81040044876
:103A60000121FEF773BE10BD441200202412002075
:103A7000D84700080020FFF731B8FEF7FFBFFEF778
:103A8000D8BF000038B5214D214C22482A460A23D0
:103A90002146FEF76DFFFFF7F7FEFDF779FD1E48A3
:103AA000FDF754FC1D48FEF781FC0020FEF7AEF840
:103AB0001B491C48FEF77AFC1B491C48FEF776FCA4
:103AC0001B48FEF76FF81B48FEF77AF81A48FEF716
:103AD0005BF8FEF76FFD1948FEF798FD184A194983
:103AE00019480023FEF7FAFD29462046FEF76EF836
:103AF00000F032F801234FF47A7210210320FDF711
:103B000077FFBDE83840FDF709BE00BFA1310008CE
:103B100091310008D013002038000020DC47000855
:103B2000F347000816480008104800082B48000812
:103B30004F380008FD370008653800085C00002099
:103B4000753A00087B3A00087F3A00080148FEF702
:103B50002BBF00BFD013002038B50F4C4FF4C075F9
:103B60002A460021204600F0D5F90C4904224FF4E2
:103B70008050FEF75EFF0A49042241F20400FEF77E
:103B800058FF2A46214641F20800FEF752FFBDE8E1
:103B900038400448FEF70ABC5012002048120020AA
:103BA0004C120020434800082DE9F84F0E46074606
:103BB000FFF771FDFDF7B8FD214A224C136821681B
:103BC00090F8048090F805A090F8069090F807B05F
:103BD0001D481E4D3F2B98BF013301F03F0198BF98
:103BE00013602160FEF7E2FB2268062151436B1847
:103BF00001325E7083F802A083F8039083F804809A
:103C000083F805B04FF480506F542260FEF766FFD2
:103C10000B4904224FF48050FEF730FF094904227B
:103C200041F20400FEF72AFF29464FF4C07241F228
:103C30000800FEF723FFBDE8F84FFFF72ABD00BFDD
:103C4000481200204C1200206F480008501200203B
:103C50002DE9FF41042203A94FF48050FEF7E9FE4D
:103C60002E492E4C2E4FDFF8C8804FF4C07241F21F
:103C70000800FEF7DEFE2B48FEF798FB03992A4862
:103C8000FEF794FB25460026039BB34210D92B7800
:103C90005BB96B7857F8233001936B7900932B79DC
:103CA000EA78A9784046FEF781FB01360635EBE756
:103CB0001A4D1B4FDFF87C800026039BB34211D9BD
:103CC0002B78012B0BD16B7857F8233001936B794C
:103CD00000932B79EA78A9784046FEF767FB013616
:103CE0000635EAE70E4E114F0025039BAB4211D972
:103CF0002378022B0BD16378E27856F823300193B6
:103D000063790093A17823793846FEF74FFB01359C
:103D10000634EAE704B0BDE8F08100BF501200208D
:103D20002400002098480008AE48000862490008B6
:103D3000C148000811490008F8B5144C144F154E3D
:103D40004FF4C0752A460021204600F0E3F8002316
:103D50004FF480503B603360FEF7C0FE39460422CA
:103D60004FF48050FEF78AFE3146042241F20400EF
:103D7000FEF784FE2A46214641F20800FEF77EFE49
:103D8000BDE8F8400448FEF711BB00BF5012002008
:103D9000481200204C120020B449000808B5FFF773
:103DA00061FD002008BD000008B50248FEF7FEFADC
:103DB000002008BD4B4A000808B50379742B08D0D1
:103DC000762B0AD06D2B11D1FFF784FC01460948F0
:103DD00009E0FDF753FC002008BD07490748FEF73E
:103DE000E5FA07490748FEF7E1FAF4E70648FEF767
:103DF000DDFAF0E7884A000886440008574A0008C0
:103E000010480008714A0008994A000808B58379EB
:103E1000722B13D007D8312B13D06C2B0AD00A4841
:103E2000FEF7C4FA08E0742BF9D10848EE21FEF73A
:103E30008DFC01E0FEF71AFD002008BDFEF75CFDD9
:103E4000FAE703481021F2E7C94A0008C04A00080F
:103E5000C44A000808B50379332B11D007D8312B99
:103E600010D0322B13D00B48FEF7A0FA08E06C2BD1
:103E700004D0722BF7D1FFF75FFF01E0FFF7E8FEF8
:103E8000002008BD03210120FFF78EFEF8E7042182
:103E90000220F9E7EF4A000808B50379312B05D174
:103EA00011210220FDF7B0FA002008BD0148FEF7FD
:103EB0007DFAF9E7134B0008C379112B02D10248B0
:103EC000FEF774BA704700BFF54B000808B5C37918
:103ED000102B06D1FFF7EAFCBDE808400148FEF7C9
:103EE00058BD08BDD0130020044A1168034609B923
:103EF000034911601068034413607047E013002009
:103F000018140020024B0146186800F021B900BFC8
:103F1000DC040020830730B548D0541E002A3FD06F
:103F2000CAB2034601E0013C3AD303F8012B9D07D6
:103F3000F9D1032C2DD9CDB245EA05250F2C45EA40
:103F4000054536D9A4F1100222F00F0C03F1200E22
:103F5000E6444FEA121C03F1100242E9045542E91B
:103F6000025510327245F8D10CF1010214F00C0F19
:103F700003EB021204F00F0C13D0ACF1040323F096
:103F800003030433134442F8045B9342FBD10CF067
:103F900003042CB1CAB21C4403F8012B9C42FBD190
:103FA00030BD64461346002CF4D1F9E703461446AD
:103FB000BFE71A46A446E0E7014800F0CFB900BFCA
:103FC00010140020014800F0CBB900BF10140020ED
:103FD00038B5074D0022044608462A60FFF784FFE3
:103FE000431C00D038BD2B68002BFBD0236038BDAC
:103FF0001414002080EA0102844612F0030F4FD10E
:1040000011F0030F32D14DF8044D11F0040F51F8A7
:10401000043B0BD0A3F101329A4312F0803F04BF5E
:104020004CF8043B51F8043B16D100BF51F8044B47
:10403000A3F101329A4312F0803FA4F101320BD177
:104040004CF8043BA24312F0803F04BF51F8043BFC
:104050004CF8044BEAD023460CF8013B13F0FF0F59
:104060004FEA3323F8D15DF8044B704711F0010F8C
:1040700006D011F8012B0CF8012B002A08BF70475D
:1040800011F0020FBFD031F8022B12F0FF0F16BF54
:104090002CF8022B8CF8002012F47F4FB3D170471C
:1040A00011F8012B0CF8012B002AF9D1704700BF41
:1040B000F8B5244F0C460646FFF77EFFBA685568F0
:1040C000C4F57E630F3325F003052B4423F47F638F
:1040D00023F00F03A3F58054B4F5805F07DB0021C4
:1040E0003046FFF775FFBB682B44984204D030463A
:1040F000FFF768FF0020F8BD61423046FFF768FF18
:1041000001300DD0104ABB682D1B45F001055D60E4
:10411000136830461B1B1360FFF754FF0120F8BDE6
:1041200000213046FFF754FFBA68831A0F2BDEDDFB
:1041300043F001035360054B03491B68C01A086034
:10414000D5E700BFCC000020E4130020D4040020F9
:10415000002961D0F8B50C460646FFF72DFF54F84C
:10416000042C7B4FA4F1080522F0010105EB010CA2
:10417000B868DCF80430604523F0030300F08B805E
:10418000D207CCF8043032D454F8082CAD1A1144BC
:10419000AA6807F1080082426AD00CEB0304D4F845
:1041A00004E0EC68D4601EF0010FA26000F097807C
:1041B00041F001036B60CCF80010B1F5007F35D2FF
:1041C0007A68CB08480901210133814011437960A5
:1041D00007EBC30257F83310083AC5E9021247F853
:1041E0003350CD603046BDE8F840FFF7EBBE0CEB36
:1041F00003025268D00710D4194407F10800DCF814
:104200000830834273D0DCF80C20DA60936041F010
:1042100001036B606950D0E7704741F00103B1F5CD
:10422000007F44F8043CCCF80010C9D3B1F5206FEE
:104230004FEA512348D28B0903F1390003F13802C8
:10424000C300F818FB580838984259D05A6822F031
:1042500003028A4202D99B689842F7D1D868C5E91F
:1042600002308560DD603046BDE8F840FFF7AABE49
:104270000CEB03025268D20763D40B44DCE9021250
:10428000CA60916043F001026A603046EB50BDE8BD
:10429000F840FFF797BE0B44D10707D454F8082C19
:1042A000AD1A1344D5E90212CA60916043F00102CD
:1042B0006A60284ABD6012689A4293D8264B3046FD
:1042C0001968FFF7F5FE8DE7142B0AD9542B1FD878
:1042D0000B0B03F16F0003F16E02C300B1E7194449
:1042E0008DE703F15C0003F15B02C300A9E741F035
:1042F0000103C7E90455C5E902006B60695071E725
:1043000079689210012404FA02F20A437A60A6E75F
:10431000B3F5AA7F06D8CB0B03F1780003F177023F
:10432000C3008EE740F25452934206D88B0C03F13F
:104330007D0003F17C02C30083E74FF47E737E228D
:104340007FE741F001036B60CCF800104AE700BF43
:10435000CC000020D80400200C140020704700BFBF
:04436000704700BFE3
:104364005441534B007461736B20636F6E736F6CB5
:1043740065007461736B20706F6C6C696E67206389
:104384006F6E736F6C65000A0A0A00205F5F20205D
:1043940020205F5F20205F5F5F5F20205F5F5F5FA3
:1043A400202020205F5F5F5F20205F20205F20208F
:1043B4005F5F5F5F20205F5F5F5F2020205F5F2083
:1043C40020205F5F5F5F0A0028202029202028200A
:1043D4002029285F20205F292820205F5F292020B2
:1043E400285F20205F292F202928205C2820205F97
:1043F400205C2820205F5F29202F205F5C2028205C
:104404002020205C0A002F20285F2F5C20292820F0
:104414002020292820202029205F29202020202036
:104424002928202029205F5F202820292020202FD0
:104434002029205F29202F202020205C20292044AF
:1044440020280A005C5F5F5F5F2F285F5F292028B8
:104454005F5F2920285F5F5F5F29202020285F5F3E
:1044640029205C5F29285F2F285F5F5C5F29285F14
:104474005F5F5F295C5F2F5C5F2F285F5F5F5F2F4B
:104484000A00312E34004B65726E656C20766572BD
:1044940073696F6E3A2025730A0047616F44656E35
:1044A40000417574686F723A2025730A0032323AFB
:1044B40031313A3333004F63742031392032303292
:1044C40035004275696C6420646174653A20257313
:1044D4002025730A005B4B45524E454C5D20737991
:1044E4007374656D20696E69742073756363657395
:1044F4007366756C6C790A005B4B45524E454C5D96
:10450400206170706C69636174696F6E207374618B
:1045140072740A007461736B20696E697420696E29
:10452400666F726D6174696F6E3A0A005B616374E1
:104534006976655F6F626A5D0A007461736B2069F6
:10454400643A20256420097461736B207072693A9F
:1045540020256420097461736B20696E666F3A20AC
:1045640025730A005B706F6C6C696E675F6F626ABB
:104574005D0A007461736B2069643A202564200924
:10458400696E697469616C3A2025642009746173E9
:104594006B20696E666F3A2025730A004D534700FD
:1045A4007461736B2074696D6572207469636B0048
:1045B40054494D4552004E614E004F5600494E46F7
:1045C40000636D6420756E6B6E6F776E0A00747293
:1045D40079202768656C702720746F2067657420C4
:1045E400616C6C20636F6D6D616E64730A0A0063A5
:1045F4006D6420746F6F206C6F6E670A00636D6466
:10460400207461626C65206E6F7420666F756E64D1
:104614000A00706C656173652072656769737465FF
:104624007220636D64207461626C65206265666FDC
:104634007265207573696E6720636D64206C696EA2
:1046440065207061727365720A00636D642065721F
:10465400726F720A0023000A6572726F723A2063E5
:104664006D6420746F6F206C6F6E672C20636D64B3
:104674002073697A653A2025642C2074727920614C
:104684006761696E20210A000A1B5B316D434F4D3F
:104694004D414E44204C4953543A1B5B306D0A0A39
:1046A400001B5B316D252D3132731B5B306D202D6A
:1046B4003E2025730A001B5B336D25731B5B306D35
:1046C4000A0A0068656C700073686F7720616C6C0F
:1046D40020636F6D6D616E6473002D3E20464154FE
:1046E400414C204552524F5220210A0066617461A8
:1046F4006C5F747970653A20257320096661746172
:104704006C5F636F64653A203078253032580A0A4A
:1047140000666174616C206C6F6720696E666F72ED
:104724006D6174696F6E0A00666174616C206C6FF0
:10473400672074726163653A2025640A00737263AA
:104744005F7461736B5F69643A2025642009646552
:10475400735F7461736B5F69643A20256420096D2B
:1047640073675F747970653A2025642009736967FB
:104774006E616C3A2025642009666174616C5F6324
:104784006F64653A203078253032582009666174A8
:10479400616C5F747970653A2025730A005B666109
:1047A40074616C5F6C6F675D20666174616C206C12
:1047B4006F672065726173656420737563636573E5
:1047C4007366756C6C790A0053595354454D005403
:1047D40049434B00504859005B4150505D20617083
:1047E400705F6D6F64653A2044454255470A006C1A
:1047F4006974655F7468726561645F73746D333284
:10480400663431315F64656275675F76312E312EAF
:1048140030005B4150505D206170705F7469746C4E
:10482400653A2025730A005B4150505D2061707029
:104834005F76657273696F6E3A2025730A0A005BAE
:104844006170705F6C6F675D20617070206C6F6762
:1048540020696E697469616C697A65642073756333
:104864006365737366756C6C790A005B4150505DC7
:10487400205B6170705F6C6F675D206170705F6C4E
:104884006F675F77726974655F696E6465783A20F3
:1048940025640A00617070206C6F6720696E666F12
:1048A400726D6174696F6E3A0A00617070206C6F8A
:1048B400672074726163653A2025640A005B494E7F
:1048C400465D207372635F7461736B5F69643A2041
:1048D400256420096465735F7461736B5F69643A6E
:1048E40020256420096D73675F747970653A20250B
:1048F4006420097369676E616C3A20256420096C31
:104904006F675F696E666F3A2025730A005B5741D3
:10491400524E5D207372635F7461736B5F69643AB6
:1049240020256420096465735F7461736B5F696437
:104934003A20256420096D73675F747970653A20A5
:10494400256420097369676E616C3A202564200927
:104954006C6F675F696E666F3A2025730A005B456A
:1049640052524F525D207372635F7461736B5F695F
:10497400643A20256420096465735F7461736B5F16
:1049840069643A20256420096D73675F74797065E2
:104994003A20256420097369676E616C3A202564A6
:1049A40020096C6F675F696E666F3A2025730A0091
:1049B4005B6170705F6C6F675D20617070206C6FFD
:1049C40067206572617365642073756363657373CF
:1049D40066756C6C790A0053454E534F525F5245CD
:1049E4004144494E475F455252004E4554574F5239
:1049F4004B5F5245434F4E4E454354004E4554572A
:104A04004F524B5F444953434F4E4E4543544544E4
:104A1400004D5154545F5245434F4E4E454354004C
:104A24004D5154545F444953434F4E4E45435445AE
:104A340044007461736B206465627567007461730C
:104A44006B206C696665005B4150505D201B5B32D6
:104A54004A0D005B4150505D206B65726E656C5F62
:104A640076657273696F6E3A2025730A005B415054
:104A7400505D206170705F76657273696F6E3A2065
:104A840025730A005B4150505D206D696C6C733A6C
:104A94002025640A005B4150505D205B7368656C9F
:104AA4006C5F73797374656D5D20756E6B6E6F7773
:104AB4006E206F7074696F6E20210A0044424700B3
:104AC40054455354005B4150505D205B7368656CE2
:104AD4006C5F666174616C5D20756E6B6E6F776E72
:104AE400206F7074696F6E20210A005B4150505D25
:104AF400205B7368656C6C5F6C6F675D20756E6BB3
:104B04006E6F776E206F7074696F6E20210A005B80
:104B14004150505D205B7368656C6C5F6462675DD7
:104B240020756E6B6E6F776E206F7074696F6E2078
:104B3400210A0073797374656D207265626F6F74F6
:104B440000737973007368656C6C20737973746592
:104B54006D00636C65617200636C656172207363E0
:104B64007265656E00666174616C007472792027E9
:104B7400666174616C206C2720666F7220676574AF
:104B840020666174616C206C6F672C2027666174E9
:104B9400616C20722720666F7220726573657420C1
:104BA400666174616C206C6F67006462670073688F
:104BB400656C6C2064656275670074727920276C7B
:104BC4006F67206C2720666F7220676574206170A0
:104BD40070206C6F672C20276C6F6720722720660B
:104BE4006F7220726573657420617070206C6F67DA
:104BF400005B4150505D205B7461736B5F64656260
:104C040075675D2044454255475F310A0000000046
:084C140020C4FF7F0100000035
:104C1C000000000000000000010203040607080960
:104C2C0000E1F50500000000010203040102030489
:104C3C0006070809DB490008EE490008004A00088D
:104C4C00154A0008244A000802000000B93E00087A
:104C5C00364A000803070000CD3E0008414A000810
:104C6C000800000000000000000000003E4B00089F
:104C7C009D3D0008374B000800000000454B000824
:104C8C00B93D0008494B000800000000564B0008D5
:104C9C00A93D00085C4B000800000000694B0008AF
:104CAC000D3E0008A44B00086F4B0008AE4B0008EB
:104CBC00993E0008B24B000800000000AA4B000807
:104CCC00553E0008ED4B0008BE4B000800000000EC
:104CDC0000000000000000000000000000000000C8
:104CEC0000000000CC000020CC000020D4000020EC
:104CFC00D4000020DC000020DC000020E4000020B8
:104D0C00E4000020EC000020EC000020F400002067
:104D1C00F4000020FC000020FC0000200401002016
:104D2C00040100200C0100200C01002014010020C3
:104D3C00140100201C0100201C0100202401002073
:104D4C00240100202C0100202C0100203401002023
:104D5C00340100203C0100203C01002044010020D3
:104D6C00440100204C0100204C0100205401002083
:104D7C00540100205C0100205C0100206401002033
:104D8C00640100206C0100206C01002074010020E3
:104D9C00740100207C0100207C0100208401002093
:104DAC00840100208C0100208C0100209401002043
:104DBC00940100209C0100209C010020A4010020F3
:104DCC00A4010020AC010020AC010020B4010020A3
:104DDC00B4010020BC010020BC010020C401002053
:104DEC00C4010020CC010020CC010020D401002003
:104DFC00D4010020DC010020DC010020E4010020B3
:104E0C00E4010020EC010020EC010020F401002062
:104E1C00F4010020FC010020FC0100200402002011
:104E2C00040200200C0200200C02002014020020BE
:104E3C00140200201C0200201C020020240200206E
:104E4C00240200202C0200202C020020340200201E
:104E5C00340200203C0200203C02002044020020CE
:104E6C00440200204C0200204C020020540200207E
:104E7C00540200205C0200205C020020640200202E
:104E8C00640200206C0200206C02002074020020DE
:104E9C00740200207C0200207C020020840200208E
:104EAC00840200208C0200208C020020940200203E
:104EBC00940200209C0200209C020020A4020020EE
:104ECC00A4020020AC020020AC020020B40200209E
:104EDC00B4020020BC020020BC020020C40200204E
:104EEC00C4020020CC020020CC020020D4020020FE
:104EFC00D4020020DC020020DC020020E4020020AE
:104F0C00E4020020EC020020EC020020F40200205D
:104F1C00F4020020FC020020FC020020040300200C
:104F2C00040300200C0300200C03002014030020B9
:104F3C00140300201C0300201C0300202403002069
:104F4C00240300202C0300202C0300203403002019
:104F5C00340300203C0300203C03002044030020C9
:104F6C00440300204C0300204C0300205403002079
:104F7C00540300205C0300205C0300206403002029
:104F8C00640300206C0300206C03002074030020D9
:104F9C00740300207C0300207C0300208403002089
:104FAC00840300208C0300208C0300209403002039
:104FBC00940300209C0300209C030020A4030020E9
:104FCC00A4030020AC030020AC030020B403002099
:104FDC00B4030020BC030020BC030020C403002049
:104FEC00C4030020CC030020CC030020D4030020F9
:104FFC00D4030020DC030020DC030020E4030020A9
:10500C00E4030020EC030020EC030020F403002058
:10501C00F4030020FC030020FC0300200404002007
:10502C00040400200C0400200C04002014040020B4
:10503C00140400201C0400201C0400202404002064
:10504C00240400202C0400202C0400203404002014
:10505C00340400203C0400203C04002044040020C4
:10506C00440400204C0400204C0400205404002074
:10507C00540400205C0400205C0400206404002024
:10508C00640400206C0400206C04002074040020D4
:10509C00740400207C0400207C0400208404002084
:1050AC00840400208C0400208C0400209404002034
:1050BC00940400209C0400209C040020A4040020E4
:1050CC00A4040020AC040020AC040020B404002094
:1050DC00B4040020BC040020BC040020C404002044
:1050EC00C4040020FFFFFFFF00000200E0040020CA
:1050FC0000000000CC070020340800209C08002091
:10510C000000000000000000000000000000000093
:10511C000000000000000000000000000000000083
:10512C000000000000000000000000000000000073
:10513C000000000000000000000000000000000063
:10514C000000000000000000000000000000000053
:10515C000000000000000000000000000000000043
:10516C000000000000000000000000000000000033
:10517C000000000000000000000000000000000023
:10518C000000000000000000000000000000000013
:10519C000000000000000000010000000000000002
:1051AC000E33CDAB34126DE6ECDE05000B000000C7
:1051BC0000000000000000000000000000000000E3
:1051CC0000000000000000000000000000000000D3
:1051DC0000000000000000000000000000000000C3
:1051EC0000000000000000000000000000000000B3
:040000050800357D3D
:00000001FF
